{
  "contractName": "Factory",
  "abi": [
    {
      "anonymous": false,
      "inputs": [
        {
          "indexed": true,
          "internalType": "contract Fundraiser",
          "name": "fundraiser",
          "type": "address"
        }
      ],
      "name": "FundraiserCreated",
      "type": "event"
    },
    {
      "inputs": [
        {
          "internalType": "string",
          "name": "",
          "type": "string"
        }
      ],
      "name": "fundraisersMap",
      "outputs": [
        {
          "internalType": "contract Fundraiser",
          "name": "",
          "type": "address"
        }
      ],
      "stateMutability": "view",
      "type": "function",
      "constant": true
    },
    {
      "inputs": [],
      "name": "fundraisersCount",
      "outputs": [
        {
          "internalType": "uint256",
          "name": "",
          "type": "uint256"
        }
      ],
      "stateMutability": "view",
      "type": "function",
      "constant": true
    },
    {
      "inputs": [
        {
          "internalType": "string",
          "name": "name",
          "type": "string"
        },
        {
          "internalType": "string",
          "name": "siteURL",
          "type": "string"
        },
        {
          "internalType": "string",
          "name": "imageURL",
          "type": "string"
        },
        {
          "internalType": "string",
          "name": "description",
          "type": "string"
        },
        {
          "internalType": "address payable",
          "name": "beneficiary",
          "type": "address"
        }
      ],
      "name": "createFundraiser",
      "outputs": [],
      "stateMutability": "nonpayable",
      "type": "function"
    },
    {
      "inputs": [
        {
          "internalType": "uint256",
          "name": "limit",
          "type": "uint256"
        },
        {
          "internalType": "uint256",
          "name": "offset",
          "type": "uint256"
        }
      ],
      "name": "fundraisers",
      "outputs": [
        {
          "internalType": "contract Fundraiser[]",
          "name": "coll",
          "type": "address[]"
        }
      ],
      "stateMutability": "view",
      "type": "function",
      "constant": true
    }
  ],
  "bytecode": "0x608060405234801561001057600080fd5b5061242f806100206000396000f3fe60806040523480156200001157600080fd5b5060043610620000525760003560e01c806311d752ad14620000575780633c67e0ae1462000077578063704914f814620000ad5780639d3b435514620000e3575b600080fd5b6200007560048036038101906200006f9190620005e2565b62000105565b005b6200009560048036038101906200008f9190620006e6565b620001f8565b604051620000a49190620007a2565b60405180910390f35b620000cb6004803603810190620000c59190620007fa565b62000241565b604051620000da91906200090f565b60405180910390f35b620000ed620003ed565b604051620000fc919062000944565b60405180910390f35b600085858585856040516200011a90620003f9565b6200012a95949392919062000a05565b604051809103906000f08015801562000147573d6000803e3d6000fd5b5090506000819080600181540180825580915050600190039060005260206000200160009091909190916101000a81548173ffffffffffffffffffffffffffffffffffffffff021916908373ffffffffffffffffffffffffffffffffffffffff1602179055508073ffffffffffffffffffffffffffffffffffffffff167f2557643b2d3fb1068494cb23ac8d1b3b2a857564fe606f86020e33e2351e42dc60405160405180910390a2505050505050565b6001818051602081018201805184825260208301602085012081835280955050505050506000915054906101000a900473ffffffffffffffffffffffffffffffffffffffff1681565b60606200024d620003ed565b82111562000292576040517f08c379a0000000000000000000000000000000000000000000000000000000008152600401620002899062000ace565b60405180910390fd5b6000826200029f620003ed565b620002ab919062000b1f565b9050838110620002bc5783620002be565b805b905060148110620002d1576014620002d3565b805b90508067ffffffffffffffff811115620002f257620002f162000436565b5b604051908082528060200260200182016040528015620003215781602001602082028036833780820191505090505b50915060005b81811015620003e5576000818562000340919062000b5a565b8154811062000354576200035362000bb7565b5b9060005260206000200160009054906101000a900473ffffffffffffffffffffffffffffffffffffffff1683828151811062000395576200039462000bb7565b5b602002602001019073ffffffffffffffffffffffffffffffffffffffff16908173ffffffffffffffffffffffffffffffffffffffff16815250508080620003dc9062000be6565b91505062000327565b505092915050565b60008080549050905090565b6117c58062000c3583390190565b6000604051905090565b600080fd5b600080fd5b600080fd5b600080fd5b6000601f19601f8301169050919050565b7f4e487b7100000000000000000000000000000000000000000000000000000000600052604160045260246000fd5b620004708262000425565b810181811067ffffffffffffffff8211171562000492576200049162000436565b5b80604052505050565b6000620004a762000407565b9050620004b5828262000465565b919050565b600067ffffffffffffffff821115620004d857620004d762000436565b5b620004e38262000425565b9050602081019050919050565b82818337600083830152505050565b6000620005166200051084620004ba565b6200049b565b90508281526020810184848401111562000535576200053462000420565b5b62000542848285620004f0565b509392505050565b600082601f8301126200056257620005616200041b565b5b813562000574848260208601620004ff565b91505092915050565b600073ffffffffffffffffffffffffffffffffffffffff82169050919050565b6000620005aa826200057d565b9050919050565b620005bc816200059d565b8114620005c857600080fd5b50565b600081359050620005dc81620005b1565b92915050565b600080600080600060a0868803121562000601576200060062000411565b5b600086013567ffffffffffffffff81111562000622576200062162000416565b5b62000630888289016200054a565b955050602086013567ffffffffffffffff81111562000654576200065362000416565b5b62000662888289016200054a565b945050604086013567ffffffffffffffff81111562000686576200068562000416565b5b62000694888289016200054a565b935050606086013567ffffffffffffffff811115620006b857620006b762000416565b5b620006c6888289016200054a565b9250506080620006d988828901620005cb565b9150509295509295909350565b600060208284031215620006ff57620006fe62000411565b5b600082013567ffffffffffffffff81111562000720576200071f62000416565b5b6200072e848285016200054a565b91505092915050565b6000819050919050565b6000620007626200075c62000756846200057d565b62000737565b6200057d565b9050919050565b6000620007768262000741565b9050919050565b60006200078a8262000769565b9050919050565b6200079c816200077d565b82525050565b6000602082019050620007b9600083018462000791565b92915050565b6000819050919050565b620007d481620007bf565b8114620007e057600080fd5b50565b600081359050620007f481620007c9565b92915050565b6000806040838503121562000814576200081362000411565b5b60006200082485828601620007e3565b92505060206200083785828601620007e3565b9150509250929050565b600081519050919050565b600082825260208201905092915050565b6000819050602082019050919050565b62000878816200077d565b82525050565b60006200088c83836200086d565b60208301905092915050565b6000602082019050919050565b6000620008b28262000841565b620008be81856200084c565b9350620008cb836200085d565b8060005b8381101562000902578151620008e688826200087e565b9750620008f38362000898565b925050600181019050620008cf565b5085935050505092915050565b600060208201905081810360008301526200092b8184620008a5565b905092915050565b6200093e81620007bf565b82525050565b60006020820190506200095b600083018462000933565b92915050565b600081519050919050565b600082825260208201905092915050565b60005b838110156200099d57808201518184015260208101905062000980565b83811115620009ad576000848401525b50505050565b6000620009c08262000961565b620009cc81856200096c565b9350620009de8185602086016200097d565b620009e98162000425565b840191505092915050565b620009ff816200059d565b82525050565b600060a082019050818103600083015262000a218188620009b3565b9050818103602083015262000a378187620009b3565b9050818103604083015262000a4d8186620009b3565b9050818103606083015262000a638185620009b3565b905062000a746080830184620009f4565b9695505050505050565b7f6f6666736574206f7574206f6620626f756e6473000000000000000000000000600082015250565b600062000ab66014836200096c565b915062000ac38262000a7e565b602082019050919050565b6000602082019050818103600083015262000ae98162000aa7565b9050919050565b7f4e487b7100000000000000000000000000000000000000000000000000000000600052601160045260246000fd5b600062000b2c82620007bf565b915062000b3983620007bf565b92508282101562000b4f5762000b4e62000af0565b5b828203905092915050565b600062000b6782620007bf565b915062000b7483620007bf565b9250827fffffffffffffffffffffffffffffffffffffffffffffffffffffffffffffffff0382111562000bac5762000bab62000af0565b5b828201905092915050565b7f4e487b7100000000000000000000000000000000000000000000000000000000600052603260045260246000fd5b600062000bf382620007bf565b91507fffffffffffffffffffffffffffffffffffffffffffffffffffffffffffffffff82141562000c295762000c2862000af0565b5b60018201905091905056fe60806040523480156200001157600080fd5b50604051620017c5380380620017c5833981810160405281019062000037919062000496565b620000576200004b6200011860201b60201c565b6200012060201b60201c565b84600190805190602001906200006f929190620001e4565b50836002908051906020019062000088929190620001e4565b508260039080519060200190620000a1929190620001e4565b508160049080519060200190620000ba929190620001e4565b5080600560006101000a81548173ffffffffffffffffffffffffffffffffffffffff021916908373ffffffffffffffffffffffffffffffffffffffff1602179055506200010d816200012060201b60201c565b5050505050620005ff565b600033905090565b60008060009054906101000a900473ffffffffffffffffffffffffffffffffffffffff169050816000806101000a81548173ffffffffffffffffffffffffffffffffffffffff021916908373ffffffffffffffffffffffffffffffffffffffff1602179055508173ffffffffffffffffffffffffffffffffffffffff168173ffffffffffffffffffffffffffffffffffffffff167f8be0079c531659141344cd1fd0a4f28419497f9722a3daafe3b4186f6b6457e060405160405180910390a35050565b828054620001f290620005c9565b90600052602060002090601f01602090048101928262000216576000855562000262565b82601f106200023157805160ff191683800117855562000262565b8280016001018555821562000262579182015b828111156200026157825182559160200191906001019062000244565b5b50905062000271919062000275565b5090565b5b808211156200029057600081600090555060010162000276565b5090565b6000604051905090565b600080fd5b600080fd5b600080fd5b600080fd5b6000601f19601f8301169050919050565b7f4e487b7100000000000000000000000000000000000000000000000000000000600052604160045260246000fd5b620002fd82620002b2565b810181811067ffffffffffffffff821117156200031f576200031e620002c3565b5b80604052505050565b60006200033462000294565b9050620003428282620002f2565b919050565b600067ffffffffffffffff821115620003655762000364620002c3565b5b6200037082620002b2565b9050602081019050919050565b60005b838110156200039d57808201518184015260208101905062000380565b83811115620003ad576000848401525b50505050565b6000620003ca620003c48462000347565b62000328565b905082815260208101848484011115620003e957620003e8620002ad565b5b620003f68482856200037d565b509392505050565b600082601f830112620004165762000415620002a8565b5b815162000428848260208601620003b3565b91505092915050565b600073ffffffffffffffffffffffffffffffffffffffff82169050919050565b60006200045e8262000431565b9050919050565b620004708162000451565b81146200047c57600080fd5b50565b600081519050620004908162000465565b92915050565b600080600080600060a08688031215620004b557620004b46200029e565b5b600086015167ffffffffffffffff811115620004d657620004d5620002a3565b5b620004e488828901620003fe565b955050602086015167ffffffffffffffff811115620005085762000507620002a3565b5b6200051688828901620003fe565b945050604086015167ffffffffffffffff8111156200053a5762000539620002a3565b5b6200054888828901620003fe565b935050606086015167ffffffffffffffff8111156200056c576200056b620002a3565b5b6200057a88828901620003fe565b92505060806200058d888289016200047f565b9150509295509295909350565b7f4e487b7100000000000000000000000000000000000000000000000000000000600052602260045260246000fd5b60006002820490506001821680620005e257607f821691505b60208210811415620005f957620005f86200059a565b5b50919050565b6111b6806200060f6000396000f3fe6080604052600436106100e15760003560e01c80637284e4161161007f578063b90497e011610059578063b90497e01461029e578063de2ed893146102c9578063ed88c68e146102f4578063f2fde38b146102fe576100e2565b80637284e4161461021d5780638da5cb5b14610248578063a780b94e14610273576100e2565b80631f522595116100bb5780631f5225951461019957806338af3eed146101c45780633ccfd60b146101ef578063715018a614610206576100e2565b80630180b97c1461011757806306fdde03146101425780631a57f7b41461016d576100e2565b5b6100f73460065461032790919063ffffffff16565b6006819055506007600081548092919061011090610c54565b9190505550005b34801561012357600080fd5b5061012c61033d565b6040516101399190610cac565b60405180910390f35b34801561014e57600080fd5b50610157610387565b6040516101649190610d60565b60405180910390f35b34801561017957600080fd5b50610182610415565b604051610190929190610e40565b60405180910390f35b3480156101a557600080fd5b506101ae61058a565b6040516101bb9190610cac565b60405180910390f35b3480156101d057600080fd5b506101d9610590565b6040516101e69190610eb8565b60405180910390f35b3480156101fb57600080fd5b506102046105b6565b005b34801561021257600080fd5b5061021b6106da565b005b34801561022957600080fd5b50610232610762565b60405161023f9190610d60565b60405180910390f35b34801561025457600080fd5b5061025d6107f0565b60405161026a9190610ef4565b60405180910390f35b34801561027f57600080fd5b50610288610819565b6040516102959190610d60565b60405180910390f35b3480156102aa57600080fd5b506102b36108a7565b6040516102c09190610d60565b60405180910390f35b3480156102d557600080fd5b506102de610935565b6040516102eb9190610cac565b60405180910390f35b6102fc61093b565b005b34801561030a57600080fd5b5061032560048036038101906103209190610f40565b610a57565b005b600081836103359190610f6d565b905092915050565b6000600860003373ffffffffffffffffffffffffffffffffffffffff1673ffffffffffffffffffffffffffffffffffffffff16815260200190815260200160002080549050905090565b6001805461039490610ff2565b80601f01602080910402602001604051908101604052809291908181526020018280546103c090610ff2565b801561040d5780601f106103e25761010080835404028352916020019161040d565b820191906000526020600020905b8154815290600101906020018083116103f057829003601f168201915b505050505081565b606080600061042261033d565b90508067ffffffffffffffff81111561043e5761043d611024565b5b60405190808252806020026020018201604052801561046c5781602001602082028036833780820191505090505b5092508067ffffffffffffffff81111561048957610488611024565b5b6040519080825280602002602001820160405280156104b75781602001602082028036833780820191505090505b50915060005b81811015610584576000600860003373ffffffffffffffffffffffffffffffffffffffff1673ffffffffffffffffffffffffffffffffffffffff168152602001908152602001600020828154811061051857610517611053565b5b9060005260206000209060020201905080600001548583815181106105405761053f611053565b5b602002602001018181525050806001015484838151811061056457610563611053565b5b60200260200101818152505050808061057c90610c54565b9150506104bd565b50509091565b60075481565b600560009054906101000a900473ffffffffffffffffffffffffffffffffffffffff1681565b6105be610b4f565b73ffffffffffffffffffffffffffffffffffffffff166105dc6107f0565b73ffffffffffffffffffffffffffffffffffffffff1614610632576040517f08c379a0000000000000000000000000000000000000000000000000000000008152600401610629906110ce565b60405180910390fd5b6000479050600560009054906101000a900473ffffffffffffffffffffffffffffffffffffffff1673ffffffffffffffffffffffffffffffffffffffff166108fc829081150290604051600060405180830381858888f1935050505015801561069f573d6000803e3d6000fd5b507f5b6b431d4476a211bb7d41c20d1aab9ae2321deee0d20be3d9fc9b1093fa6e3d816040516106cf9190610cac565b60405180910390a150565b6106e2610b4f565b73ffffffffffffffffffffffffffffffffffffffff166107006107f0565b73ffffffffffffffffffffffffffffffffffffffff1614610756576040517f08c379a000000000000000000000000000000000000000000000000000000000815260040161074d906110ce565b60405180910390fd5b6107606000610b57565b565b6004805461076f90610ff2565b80601f016020809104026020016040519081016040528092919081815260200182805461079b90610ff2565b80156107e85780601f106107bd576101008083540402835291602001916107e8565b820191906000526020600020905b8154815290600101906020018083116107cb57829003601f168201915b505050505081565b60008060009054906101000a900473ffffffffffffffffffffffffffffffffffffffff16905090565b6002805461082690610ff2565b80601f016020809104026020016040519081016040528092919081815260200182805461085290610ff2565b801561089f5780601f106108745761010080835404028352916020019161089f565b820191906000526020600020905b81548152906001019060200180831161088257829003601f168201915b505050505081565b600380546108b490610ff2565b80601f01602080910402602001604051908101604052809291908181526020018280546108e090610ff2565b801561092d5780601f106109025761010080835404028352916020019161092d565b820191906000526020600020905b81548152906001019060200180831161091057829003601f168201915b505050505081565b60065481565b60006040518060400160405280348152602001428152509050600860003373ffffffffffffffffffffffffffffffffffffffff1673ffffffffffffffffffffffffffffffffffffffff168152602001908152602001600020819080600181540180825580915050600190039060005260206000209060020201600090919091909150600082015181600001556020820151816001015550506109e83460065461032790919063ffffffff16565b60068190555060076000815480929190610a0190610c54565b91905055503373ffffffffffffffffffffffffffffffffffffffff167f264f630d9efa0d07053a31163641d9fcc0adafc9d9e76f1c37c2ce3a558d2c5234604051610a4c9190610cac565b60405180910390a250565b610a5f610b4f565b73ffffffffffffffffffffffffffffffffffffffff16610a7d6107f0565b73ffffffffffffffffffffffffffffffffffffffff1614610ad3576040517f08c379a0000000000000000000000000000000000000000000000000000000008152600401610aca906110ce565b60405180910390fd5b600073ffffffffffffffffffffffffffffffffffffffff168173ffffffffffffffffffffffffffffffffffffffff161415610b43576040517f08c379a0000000000000000000000000000000000000000000000000000000008152600401610b3a90611160565b60405180910390fd5b610b4c81610b57565b50565b600033905090565b60008060009054906101000a900473ffffffffffffffffffffffffffffffffffffffff169050816000806101000a81548173ffffffffffffffffffffffffffffffffffffffff021916908373ffffffffffffffffffffffffffffffffffffffff1602179055508173ffffffffffffffffffffffffffffffffffffffff168173ffffffffffffffffffffffffffffffffffffffff167f8be0079c531659141344cd1fd0a4f28419497f9722a3daafe3b4186f6b6457e060405160405180910390a35050565b7f4e487b7100000000000000000000000000000000000000000000000000000000600052601160045260246000fd5b6000819050919050565b6000610c5f82610c4a565b91507fffffffffffffffffffffffffffffffffffffffffffffffffffffffffffffffff821415610c9257610c91610c1b565b5b600182019050919050565b610ca681610c4a565b82525050565b6000602082019050610cc16000830184610c9d565b92915050565b600081519050919050565b600082825260208201905092915050565b60005b83811015610d01578082015181840152602081019050610ce6565b83811115610d10576000848401525b50505050565b6000601f19601f8301169050919050565b6000610d3282610cc7565b610d3c8185610cd2565b9350610d4c818560208601610ce3565b610d5581610d16565b840191505092915050565b60006020820190508181036000830152610d7a8184610d27565b905092915050565b600081519050919050565b600082825260208201905092915050565b6000819050602082019050919050565b610db781610c4a565b82525050565b6000610dc98383610dae565b60208301905092915050565b6000602082019050919050565b6000610ded82610d82565b610df78185610d8d565b9350610e0283610d9e565b8060005b83811015610e33578151610e1a8882610dbd565b9750610e2583610dd5565b925050600181019050610e06565b5085935050505092915050565b60006040820190508181036000830152610e5a8185610de2565b90508181036020830152610e6e8184610de2565b90509392505050565b600073ffffffffffffffffffffffffffffffffffffffff82169050919050565b6000610ea282610e77565b9050919050565b610eb281610e97565b82525050565b6000602082019050610ecd6000830184610ea9565b92915050565b6000610ede82610e77565b9050919050565b610eee81610ed3565b82525050565b6000602082019050610f096000830184610ee5565b92915050565b600080fd5b610f1d81610ed3565b8114610f2857600080fd5b50565b600081359050610f3a81610f14565b92915050565b600060208284031215610f5657610f55610f0f565b5b6000610f6484828501610f2b565b91505092915050565b6000610f7882610c4a565b9150610f8383610c4a565b9250827fffffffffffffffffffffffffffffffffffffffffffffffffffffffffffffffff03821115610fb857610fb7610c1b565b5b828201905092915050565b7f4e487b7100000000000000000000000000000000000000000000000000000000600052602260045260246000fd5b6000600282049050600182168061100a57607f821691505b6020821081141561101e5761101d610fc3565b5b50919050565b7f4e487b7100000000000000000000000000000000000000000000000000000000600052604160045260246000fd5b7f4e487b7100000000000000000000000000000000000000000000000000000000600052603260045260246000fd5b7f4f776e61626c653a2063616c6c6572206973206e6f7420746865206f776e6572600082015250565b60006110b8602083610cd2565b91506110c382611082565b602082019050919050565b600060208201905081810360008301526110e7816110ab565b9050919050565b7f4f776e61626c653a206e6577206f776e657220697320746865207a65726f206160008201527f6464726573730000000000000000000000000000000000000000000000000000602082015250565b600061114a602683610cd2565b9150611155826110ee565b604082019050919050565b600060208201905081810360008301526111798161113d565b905091905056fea264697066735822122002e59ffb59493ea00c4724fd7dcda15a5f4cb1b7a8e5f149f56edeafb1deeb7864736f6c634300080b0033a26469706673582212201e618e6c3ad979581262b268e96a6ac908a30c33504e3e381ef0abb0c5a0aa9a64736f6c634300080b0033",
  "immutableReferences": {},
  "source": "// SPDX-License-Identifier: MIT\npragma solidity >=0.4.22 <0.9.0;\n\nimport \"./Fundraiser.sol\";\n\ncontract Factory { \n  Fundraiser[] private _fundraisers;\n  uint256 constant maxLimit = 20;\n\n  mapping(string => Fundraiser) public fundraisersMap;\n  event FundraiserCreated(Fundraiser indexed fundraiser);\n\n  function fundraisersCount() public view returns(uint256) { \n    return _fundraisers.length;\n  }\n\n  function createFundraiser( \n    string memory name,\n    string memory siteURL,\n    string memory imageURL,\n    string memory description,\n    address payable beneficiary\n  ) public {\n    Fundraiser fundraiser = new Fundraiser(\n      name,\n      siteURL,\n      imageURL,\n      description,\n      beneficiary\n    );\n    _fundraisers.push(fundraiser);\n    emit FundraiserCreated(fundraiser);\n  }\n\n  function fundraisers(uint256 limit, uint256 offset) public view returns(Fundraiser[] memory coll) {\n    require(offset <= fundraisersCount(), \"offset out of bounds\");\n\n    uint256 size = fundraisersCount() - offset;\n    size = size < limit ? size : limit;\n    size = size < maxLimit ? size : maxLimit;\n    coll = new Fundraiser[](size);\n\n    for(uint256 i = 0; i < size; i++) {\n      coll[i] = _fundraisers[offset + i];\n    }\n\n    return coll;\n  }\n}",
  "sourcePath": "/Users/m/my_stuffs/dapp-three/contracts/Factory.sol",
  "compiler": {
    "name": "solc",
    "version": "0.8.11+commit.d7f03943.Emscripten.clang"
  },
  "schemaVersion": "3.4.4",
  "updatedAt": "2022-03-04T05:21:09.941Z",
  "networkType": "ethereum",
  "devdoc": {
    "kind": "dev",
    "methods": {},
    "version": 1
  },
  "userdoc": {
    "kind": "user",
    "methods": {},
    "version": 1
  }
}