{
  "contractName": "Fundraiser",
  "abi": [
    {
      "inputs": [
        {
          "internalType": "string",
          "name": "_name",
          "type": "string"
        },
        {
          "internalType": "string",
          "name": "_siteURL",
          "type": "string"
        },
        {
          "internalType": "string",
          "name": "_imageURL",
          "type": "string"
        },
        {
          "internalType": "string",
          "name": "_description",
          "type": "string"
        },
        {
          "internalType": "address payable",
          "name": "_beneficiary",
          "type": "address"
        },
        {
          "internalType": "uint256",
          "name": "_donationGoal",
          "type": "uint256"
        },
        {
          "internalType": "uint256",
          "name": "_endAt",
          "type": "uint256"
        },
        {
          "internalType": "uint256",
          "name": "_startAt",
          "type": "uint256"
        }
      ],
      "stateMutability": "nonpayable",
      "type": "constructor"
    },
    {
      "anonymous": false,
      "inputs": [
        {
          "indexed": true,
          "internalType": "address",
          "name": "donor",
          "type": "address"
        },
        {
          "indexed": false,
          "internalType": "uint256",
          "name": "value",
          "type": "uint256"
        }
      ],
      "name": "DonationReceived",
      "type": "event"
    },
    {
      "anonymous": false,
      "inputs": [
        {
          "indexed": true,
          "internalType": "address",
          "name": "previousOwner",
          "type": "address"
        },
        {
          "indexed": true,
          "internalType": "address",
          "name": "newOwner",
          "type": "address"
        }
      ],
      "name": "OwnershipTransferred",
      "type": "event"
    },
    {
      "anonymous": false,
      "inputs": [
        {
          "indexed": false,
          "internalType": "uint256",
          "name": "amount",
          "type": "uint256"
        }
      ],
      "name": "Withdraw",
      "type": "event"
    },
    {
      "stateMutability": "payable",
      "type": "fallback"
    },
    {
      "inputs": [],
      "name": "beneficiary",
      "outputs": [
        {
          "internalType": "address payable",
          "name": "",
          "type": "address"
        }
      ],
      "stateMutability": "view",
      "type": "function"
    },
    {
      "inputs": [],
      "name": "description",
      "outputs": [
        {
          "internalType": "string",
          "name": "",
          "type": "string"
        }
      ],
      "stateMutability": "view",
      "type": "function"
    },
    {
      "inputs": [],
      "name": "donationGoal",
      "outputs": [
        {
          "internalType": "uint256",
          "name": "",
          "type": "uint256"
        }
      ],
      "stateMutability": "view",
      "type": "function"
    },
    {
      "inputs": [],
      "name": "donationsCount",
      "outputs": [
        {
          "internalType": "uint256",
          "name": "",
          "type": "uint256"
        }
      ],
      "stateMutability": "view",
      "type": "function"
    },
    {
      "inputs": [],
      "name": "endAt",
      "outputs": [
        {
          "internalType": "uint256",
          "name": "",
          "type": "uint256"
        }
      ],
      "stateMutability": "view",
      "type": "function"
    },
    {
      "inputs": [],
      "name": "imageURL",
      "outputs": [
        {
          "internalType": "string",
          "name": "",
          "type": "string"
        }
      ],
      "stateMutability": "view",
      "type": "function"
    },
    {
      "inputs": [],
      "name": "name",
      "outputs": [
        {
          "internalType": "string",
          "name": "",
          "type": "string"
        }
      ],
      "stateMutability": "view",
      "type": "function"
    },
    {
      "inputs": [],
      "name": "owner",
      "outputs": [
        {
          "internalType": "address",
          "name": "",
          "type": "address"
        }
      ],
      "stateMutability": "view",
      "type": "function"
    },
    {
      "inputs": [],
      "name": "renounceOwnership",
      "outputs": [],
      "stateMutability": "nonpayable",
      "type": "function"
    },
    {
      "inputs": [],
      "name": "siteURL",
      "outputs": [
        {
          "internalType": "string",
          "name": "",
          "type": "string"
        }
      ],
      "stateMutability": "view",
      "type": "function"
    },
    {
      "inputs": [],
      "name": "startAt",
      "outputs": [
        {
          "internalType": "uint256",
          "name": "",
          "type": "uint256"
        }
      ],
      "stateMutability": "view",
      "type": "function"
    },
    {
      "inputs": [],
      "name": "totalDonations",
      "outputs": [
        {
          "internalType": "uint256",
          "name": "",
          "type": "uint256"
        }
      ],
      "stateMutability": "view",
      "type": "function"
    },
    {
      "inputs": [
        {
          "internalType": "address",
          "name": "newOwner",
          "type": "address"
        }
      ],
      "name": "transferOwnership",
      "outputs": [],
      "stateMutability": "nonpayable",
      "type": "function"
    },
    {
      "inputs": [],
      "name": "myDonationsCount",
      "outputs": [
        {
          "internalType": "uint256",
          "name": "",
          "type": "uint256"
        }
      ],
      "stateMutability": "view",
      "type": "function"
    },
    {
      "inputs": [],
      "name": "donate",
      "outputs": [],
      "stateMutability": "payable",
      "type": "function"
    },
    {
      "inputs": [],
      "name": "myDonations",
      "outputs": [
        {
          "internalType": "uint256[]",
          "name": "values",
          "type": "uint256[]"
        },
        {
          "internalType": "uint256[]",
          "name": "dates",
          "type": "uint256[]"
        }
      ],
      "stateMutability": "view",
      "type": "function"
    },
    {
      "inputs": [],
      "name": "withdraw",
      "outputs": [],
      "stateMutability": "nonpayable",
      "type": "function"
    }
  ],
  "bytecode": "0x60806040523480156200001157600080fd5b506040516200190d3803806200190d8339818101604052810190620000379190620004e9565b620000576200004b6200013060201b60201c565b6200013860201b60201c565b87600190805190602001906200006f929190620001fc565b50866002908051906020019062000088929190620001fc565b508560039080519060200190620000a1929190620001fc565b508460049080519060200190620000ba929190620001fc565b5083600560006101000a81548173ffffffffffffffffffffffffffffffffffffffff021916908373ffffffffffffffffffffffffffffffffffffffff160217905550826008819055508060098190555081600a8190555062000122846200013860201b60201c565b505050505050505062000693565b600033905090565b60008060009054906101000a900473ffffffffffffffffffffffffffffffffffffffff169050816000806101000a81548173ffffffffffffffffffffffffffffffffffffffff021916908373ffffffffffffffffffffffffffffffffffffffff1602179055508173ffffffffffffffffffffffffffffffffffffffff168173ffffffffffffffffffffffffffffffffffffffff167f8be0079c531659141344cd1fd0a4f28419497f9722a3daafe3b4186f6b6457e060405160405180910390a35050565b8280546200020a906200065d565b90600052602060002090601f0160209004810192826200022e57600085556200027a565b82601f106200024957805160ff19168380011785556200027a565b828001600101855582156200027a579182015b82811115620002795782518255916020019190600101906200025c565b5b5090506200028991906200028d565b5090565b5b80821115620002a85760008160009055506001016200028e565b5090565b6000604051905090565b600080fd5b600080fd5b600080fd5b600080fd5b6000601f19601f8301169050919050565b7f4e487b7100000000000000000000000000000000000000000000000000000000600052604160045260246000fd5b6200031582620002ca565b810181811067ffffffffffffffff82111715620003375762000336620002db565b5b80604052505050565b60006200034c620002ac565b90506200035a82826200030a565b919050565b600067ffffffffffffffff8211156200037d576200037c620002db565b5b6200038882620002ca565b9050602081019050919050565b60005b83811015620003b557808201518184015260208101905062000398565b83811115620003c5576000848401525b50505050565b6000620003e2620003dc846200035f565b62000340565b905082815260208101848484011115620004015762000400620002c5565b5b6200040e84828562000395565b509392505050565b600082601f8301126200042e576200042d620002c0565b5b815162000440848260208601620003cb565b91505092915050565b600073ffffffffffffffffffffffffffffffffffffffff82169050919050565b6000620004768262000449565b9050919050565b620004888162000469565b81146200049457600080fd5b50565b600081519050620004a8816200047d565b92915050565b6000819050919050565b620004c381620004ae565b8114620004cf57600080fd5b50565b600081519050620004e381620004b8565b92915050565b600080600080600080600080610100898b0312156200050d576200050c620002b6565b5b600089015167ffffffffffffffff8111156200052e576200052d620002bb565b5b6200053c8b828c0162000416565b985050602089015167ffffffffffffffff81111562000560576200055f620002bb565b5b6200056e8b828c0162000416565b975050604089015167ffffffffffffffff811115620005925762000591620002bb565b5b620005a08b828c0162000416565b965050606089015167ffffffffffffffff811115620005c457620005c3620002bb565b5b620005d28b828c0162000416565b9550506080620005e58b828c0162000497565b94505060a0620005f88b828c01620004d2565b93505060c06200060b8b828c01620004d2565b92505060e06200061e8b828c01620004d2565b9150509295985092959890939650565b7f4e487b7100000000000000000000000000000000000000000000000000000000600052602260045260246000fd5b600060028204905060018216806200067657607f821691505b602082108114156200068d576200068c6200062e565b5b50919050565b61126a80620006a36000396000f3fe6080604052600436106101025760003560e01c80637cc3ae8c11610095578063b90497e011610064578063b90497e014610315578063c744656514610340578063de2ed8931461036b578063ed88c68e14610396578063f2fde38b146103a057610103565b80637cc3ae8c146102695780637d2f7190146102945780638da5cb5b146102bf578063a780b94e146102ea57610103565b806338af3eed116100d157806338af3eed146101e55780633ccfd60b14610210578063715018a6146102275780637284e4161461023e57610103565b80630180b97c1461013857806306fdde03146101635780631a57f7b41461018e5780631f522595146101ba57610103565b5b610118346006546103c990919063ffffffff16565b6006819055506007600081548092919061013190610d08565b9190505550005b34801561014457600080fd5b5061014d6103df565b60405161015a9190610d60565b60405180910390f35b34801561016f57600080fd5b50610178610429565b6040516101859190610e14565b60405180910390f35b34801561019a57600080fd5b506101a36104b7565b6040516101b1929190610ef4565b60405180910390f35b3480156101c657600080fd5b506101cf61062c565b6040516101dc9190610d60565b60405180910390f35b3480156101f157600080fd5b506101fa610632565b6040516102079190610f6c565b60405180910390f35b34801561021c57600080fd5b50610225610658565b005b34801561023357600080fd5b5061023c61077c565b005b34801561024a57600080fd5b50610253610804565b6040516102609190610e14565b60405180910390f35b34801561027557600080fd5b5061027e610892565b60405161028b9190610d60565b60405180910390f35b3480156102a057600080fd5b506102a9610898565b6040516102b69190610d60565b60405180910390f35b3480156102cb57600080fd5b506102d461089e565b6040516102e19190610fa8565b60405180910390f35b3480156102f657600080fd5b506102ff6108c7565b60405161030c9190610e14565b60405180910390f35b34801561032157600080fd5b5061032a610955565b6040516103379190610e14565b60405180910390f35b34801561034c57600080fd5b506103556109e3565b6040516103629190610d60565b60405180910390f35b34801561037757600080fd5b506103806109e9565b60405161038d9190610d60565b60405180910390f35b61039e6109ef565b005b3480156103ac57600080fd5b506103c760048036038101906103c29190610ff4565b610b0b565b005b600081836103d79190611021565b905092915050565b6000600b60003373ffffffffffffffffffffffffffffffffffffffff1673ffffffffffffffffffffffffffffffffffffffff16815260200190815260200160002080549050905090565b60018054610436906110a6565b80601f0160208091040260200160405190810160405280929190818152602001828054610462906110a6565b80156104af5780601f10610484576101008083540402835291602001916104af565b820191906000526020600020905b81548152906001019060200180831161049257829003601f168201915b505050505081565b60608060006104c46103df565b90508067ffffffffffffffff8111156104e0576104df6110d8565b5b60405190808252806020026020018201604052801561050e5781602001602082028036833780820191505090505b5092508067ffffffffffffffff81111561052b5761052a6110d8565b5b6040519080825280602002602001820160405280156105595781602001602082028036833780820191505090505b50915060005b81811015610626576000600b60003373ffffffffffffffffffffffffffffffffffffffff1673ffffffffffffffffffffffffffffffffffffffff16815260200190815260200160002082815481106105ba576105b9611107565b5b9060005260206000209060020201905080600001548583815181106105e2576105e1611107565b5b602002602001018181525050806001015484838151811061060657610605611107565b5b60200260200101818152505050808061061e90610d08565b91505061055f565b50509091565b60075481565b600560009054906101000a900473ffffffffffffffffffffffffffffffffffffffff1681565b610660610c03565b73ffffffffffffffffffffffffffffffffffffffff1661067e61089e565b73ffffffffffffffffffffffffffffffffffffffff16146106d4576040517f08c379a00000000000000000000000000000000000000000000000000000000081526004016106cb90611182565b60405180910390fd5b6000479050600560009054906101000a900473ffffffffffffffffffffffffffffffffffffffff1673ffffffffffffffffffffffffffffffffffffffff166108fc829081150290604051600060405180830381858888f19350505050158015610741573d6000803e3d6000fd5b507f5b6b431d4476a211bb7d41c20d1aab9ae2321deee0d20be3d9fc9b1093fa6e3d816040516107719190610d60565b60405180910390a150565b610784610c03565b73ffffffffffffffffffffffffffffffffffffffff166107a261089e565b73ffffffffffffffffffffffffffffffffffffffff16146107f8576040517f08c379a00000000000000000000000000000000000000000000000000000000081526004016107ef90611182565b60405180910390fd5b6108026000610c0b565b565b60048054610811906110a6565b80601f016020809104026020016040519081016040528092919081815260200182805461083d906110a6565b801561088a5780601f1061085f5761010080835404028352916020019161088a565b820191906000526020600020905b81548152906001019060200180831161086d57829003601f168201915b505050505081565b600a5481565b60085481565b60008060009054906101000a900473ffffffffffffffffffffffffffffffffffffffff16905090565b600280546108d4906110a6565b80601f0160208091040260200160405190810160405280929190818152602001828054610900906110a6565b801561094d5780601f106109225761010080835404028352916020019161094d565b820191906000526020600020905b81548152906001019060200180831161093057829003601f168201915b505050505081565b60038054610962906110a6565b80601f016020809104026020016040519081016040528092919081815260200182805461098e906110a6565b80156109db5780601f106109b0576101008083540402835291602001916109db565b820191906000526020600020905b8154815290600101906020018083116109be57829003601f168201915b505050505081565b60095481565b60065481565b60006040518060400160405280348152602001428152509050600b60003373ffffffffffffffffffffffffffffffffffffffff1673ffffffffffffffffffffffffffffffffffffffff16815260200190815260200160002081908060018154018082558091505060019003906000526020600020906002020160009091909190915060008201518160000155602082015181600101555050610a9c346006546103c990919063ffffffff16565b60068190555060076000815480929190610ab590610d08565b91905055503373ffffffffffffffffffffffffffffffffffffffff167f264f630d9efa0d07053a31163641d9fcc0adafc9d9e76f1c37c2ce3a558d2c5234604051610b009190610d60565b60405180910390a250565b610b13610c03565b73ffffffffffffffffffffffffffffffffffffffff16610b3161089e565b73ffffffffffffffffffffffffffffffffffffffff1614610b87576040517f08c379a0000000000000000000000000000000000000000000000000000000008152600401610b7e90611182565b60405180910390fd5b600073ffffffffffffffffffffffffffffffffffffffff168173ffffffffffffffffffffffffffffffffffffffff161415610bf7576040517f08c379a0000000000000000000000000000000000000000000000000000000008152600401610bee90611214565b60405180910390fd5b610c0081610c0b565b50565b600033905090565b60008060009054906101000a900473ffffffffffffffffffffffffffffffffffffffff169050816000806101000a81548173ffffffffffffffffffffffffffffffffffffffff021916908373ffffffffffffffffffffffffffffffffffffffff1602179055508173ffffffffffffffffffffffffffffffffffffffff168173ffffffffffffffffffffffffffffffffffffffff167f8be0079c531659141344cd1fd0a4f28419497f9722a3daafe3b4186f6b6457e060405160405180910390a35050565b7f4e487b7100000000000000000000000000000000000000000000000000000000600052601160045260246000fd5b6000819050919050565b6000610d1382610cfe565b91507fffffffffffffffffffffffffffffffffffffffffffffffffffffffffffffffff821415610d4657610d45610ccf565b5b600182019050919050565b610d5a81610cfe565b82525050565b6000602082019050610d756000830184610d51565b92915050565b600081519050919050565b600082825260208201905092915050565b60005b83811015610db5578082015181840152602081019050610d9a565b83811115610dc4576000848401525b50505050565b6000601f19601f8301169050919050565b6000610de682610d7b565b610df08185610d86565b9350610e00818560208601610d97565b610e0981610dca565b840191505092915050565b60006020820190508181036000830152610e2e8184610ddb565b905092915050565b600081519050919050565b600082825260208201905092915050565b6000819050602082019050919050565b610e6b81610cfe565b82525050565b6000610e7d8383610e62565b60208301905092915050565b6000602082019050919050565b6000610ea182610e36565b610eab8185610e41565b9350610eb683610e52565b8060005b83811015610ee7578151610ece8882610e71565b9750610ed983610e89565b925050600181019050610eba565b5085935050505092915050565b60006040820190508181036000830152610f0e8185610e96565b90508181036020830152610f228184610e96565b90509392505050565b600073ffffffffffffffffffffffffffffffffffffffff82169050919050565b6000610f5682610f2b565b9050919050565b610f6681610f4b565b82525050565b6000602082019050610f816000830184610f5d565b92915050565b6000610f9282610f2b565b9050919050565b610fa281610f87565b82525050565b6000602082019050610fbd6000830184610f99565b92915050565b600080fd5b610fd181610f87565b8114610fdc57600080fd5b50565b600081359050610fee81610fc8565b92915050565b60006020828403121561100a57611009610fc3565b5b600061101884828501610fdf565b91505092915050565b600061102c82610cfe565b915061103783610cfe565b9250827fffffffffffffffffffffffffffffffffffffffffffffffffffffffffffffffff0382111561106c5761106b610ccf565b5b828201905092915050565b7f4e487b7100000000000000000000000000000000000000000000000000000000600052602260045260246000fd5b600060028204905060018216806110be57607f821691505b602082108114156110d2576110d1611077565b5b50919050565b7f4e487b7100000000000000000000000000000000000000000000000000000000600052604160045260246000fd5b7f4e487b7100000000000000000000000000000000000000000000000000000000600052603260045260246000fd5b7f4f776e61626c653a2063616c6c6572206973206e6f7420746865206f776e6572600082015250565b600061116c602083610d86565b915061117782611136565b602082019050919050565b6000602082019050818103600083015261119b8161115f565b9050919050565b7f4f776e61626c653a206e6577206f776e657220697320746865207a65726f206160008201527f6464726573730000000000000000000000000000000000000000000000000000602082015250565b60006111fe602683610d86565b9150611209826111a2565b604082019050919050565b6000602082019050818103600083015261122d816111f1565b905091905056fea2646970667358221220c9f76bfa60cb6f6763dc0684756e10006a1227bf565f576371497a428164ed3564736f6c634300080b0033",
  "immutableReferences": {},
  "source": "// SPDX-License-Identifier: MIT\npragma solidity >=0.4.22 <0.9.0;\n\nimport \"openzeppelin-solidity/contracts/access/Ownable.sol\";\nimport \"openzeppelin-solidity/contracts/utils/math/SafeMath.sol\";\n\ncontract Fundraiser is Ownable {\n  using SafeMath for uint256;\n\n  struct Donation {\n    uint256 value;\n    uint256 date;\n  }\n\n  string public name;\n  string public siteURL;\n  string public imageURL;\n  string public description;\n  address payable public beneficiary;\n  uint256 public totalDonations;\n  uint256 public donationsCount;\n  uint public donationGoal;\n  uint public startAt;\n  uint public endAt;\n\n  event DonationReceived(address indexed donor, uint256 value);\n  event Withdraw(uint256 amount);\n\n  mapping(address => Donation[]) private _donations;\n\n  constructor(\n    string memory _name,\n    string memory _siteURL,\n    string memory _imageURL,\n    string memory _description,\n    address payable _beneficiary,\n    uint _donationGoal,\n    uint _endAt,\n    uint _startAt\n  ) public { \n    name = _name;\n    siteURL = _siteURL;\n    imageURL = _imageURL;\n    description = _description;\n    beneficiary = _beneficiary;\n    donationGoal = _donationGoal;\n    startAt = _startAt;\n    endAt = _endAt;\n    _transferOwnership(_beneficiary);\n  }\n\n  /* Retrive total donations count from sender */\n  function myDonationsCount() public view returns(uint256) { \n    return _donations[msg.sender].length;\n  }\n\n  function donate() public payable { \n    Donation memory donation = Donation({\n        value: msg.value,\n        date: block.timestamp\n    });\n    _donations[msg.sender].push(donation);\n    totalDonations = totalDonations.add(msg.value);\n    donationsCount++;\n\n    emit DonationReceived(msg.sender, msg.value);\n  }\n\n  /* Retrive sender's donations */\n  function myDonations() public view returns(uint256[] memory values, uint256[] memory dates) {\n    uint256 count = myDonationsCount(); \n    values = new uint256[](count); \n    dates = new uint256[](count);\n\n    for (uint256 i = 0; i < count; i++) {\n      Donation storage donation = _donations[msg.sender][i];\n      values[i] = donation.value;\n      dates[i] = donation.date;\n    }\n    \n    return (values, dates);\n  }\n\n  function withdraw() public onlyOwner {\n    uint256 balance = address(this).balance;\n    beneficiary.transfer(balance);\n    emit Withdraw(balance);\n  }\n\n  fallback() external payable {\n    totalDonations = totalDonations.add(msg.value); \n    donationsCount++;\n  }\n}",
  "sourcePath": "/Users/m/my_stuffs/dapp-three/contracts/Fundraiser.sol",
  "compiler": {
    "name": "solc",
    "version": "0.8.11+commit.d7f03943.Emscripten.clang"
  },
  "schemaVersion": "3.4.4",
  "updatedAt": "2022-03-10T06:40:17.252Z",
  "devdoc": {
    "kind": "dev",
    "methods": {
      "owner()": {
        "details": "Returns the address of the current owner."
      },
      "renounceOwnership()": {
        "details": "Leaves the contract without owner. It will not be possible to call `onlyOwner` functions anymore. Can only be called by the current owner. NOTE: Renouncing ownership will leave the contract without an owner, thereby removing any functionality that is only available to the owner."
      },
      "transferOwnership(address)": {
        "details": "Transfers ownership of the contract to a new account (`newOwner`). Can only be called by the current owner."
      }
    },
    "version": 1
  },
  "userdoc": {
    "kind": "user",
    "methods": {},
    "version": 1
  }
}