{
  "contractName": "Fundraiser",
  "abi": [
    {
      "inputs": [
        {
          "internalType": "string",
          "name": "_name",
          "type": "string"
        },
        {
          "internalType": "string",
          "name": "_siteURL",
          "type": "string"
        },
        {
          "internalType": "string",
          "name": "_imageURL",
          "type": "string"
        },
        {
          "internalType": "string",
          "name": "_description",
          "type": "string"
        },
        {
          "internalType": "address payable",
          "name": "_beneficiary",
          "type": "address"
        },
        {
          "internalType": "address",
          "name": "_owner",
          "type": "address"
        }
      ],
      "stateMutability": "nonpayable",
      "type": "constructor"
    },
    {
      "anonymous": false,
      "inputs": [
        {
          "indexed": true,
          "internalType": "address",
          "name": "donor",
          "type": "address"
        },
        {
          "indexed": false,
          "internalType": "uint256",
          "name": "value",
          "type": "uint256"
        }
      ],
      "name": "DonationReceived",
      "type": "event"
    },
    {
      "anonymous": false,
      "inputs": [
        {
          "indexed": true,
          "internalType": "address",
          "name": "previousOwner",
          "type": "address"
        },
        {
          "indexed": true,
          "internalType": "address",
          "name": "newOwner",
          "type": "address"
        }
      ],
      "name": "OwnershipTransferred",
      "type": "event"
    },
    {
      "anonymous": false,
      "inputs": [
        {
          "indexed": false,
          "internalType": "uint256",
          "name": "amount",
          "type": "uint256"
        }
      ],
      "name": "Withdraw",
      "type": "event"
    },
    {
      "stateMutability": "payable",
      "type": "fallback"
    },
    {
      "inputs": [],
      "name": "beneficiary",
      "outputs": [
        {
          "internalType": "address payable",
          "name": "",
          "type": "address"
        }
      ],
      "stateMutability": "view",
      "type": "function"
    },
    {
      "inputs": [],
      "name": "description",
      "outputs": [
        {
          "internalType": "string",
          "name": "",
          "type": "string"
        }
      ],
      "stateMutability": "view",
      "type": "function"
    },
    {
      "inputs": [],
      "name": "donationsCount",
      "outputs": [
        {
          "internalType": "uint256",
          "name": "",
          "type": "uint256"
        }
      ],
      "stateMutability": "view",
      "type": "function"
    },
    {
      "inputs": [],
      "name": "imageURL",
      "outputs": [
        {
          "internalType": "string",
          "name": "",
          "type": "string"
        }
      ],
      "stateMutability": "view",
      "type": "function"
    },
    {
      "inputs": [],
      "name": "name",
      "outputs": [
        {
          "internalType": "string",
          "name": "",
          "type": "string"
        }
      ],
      "stateMutability": "view",
      "type": "function"
    },
    {
      "inputs": [],
      "name": "owner",
      "outputs": [
        {
          "internalType": "address",
          "name": "",
          "type": "address"
        }
      ],
      "stateMutability": "view",
      "type": "function"
    },
    {
      "inputs": [],
      "name": "renounceOwnership",
      "outputs": [],
      "stateMutability": "nonpayable",
      "type": "function"
    },
    {
      "inputs": [],
      "name": "siteURL",
      "outputs": [
        {
          "internalType": "string",
          "name": "",
          "type": "string"
        }
      ],
      "stateMutability": "view",
      "type": "function"
    },
    {
      "inputs": [],
      "name": "totalDonations",
      "outputs": [
        {
          "internalType": "uint256",
          "name": "",
          "type": "uint256"
        }
      ],
      "stateMutability": "view",
      "type": "function"
    },
    {
      "inputs": [
        {
          "internalType": "address",
          "name": "newOwner",
          "type": "address"
        }
      ],
      "name": "transferOwnership",
      "outputs": [],
      "stateMutability": "nonpayable",
      "type": "function"
    },
    {
      "inputs": [
        {
          "internalType": "address payable",
          "name": "_beneficiary",
          "type": "address"
        }
      ],
      "name": "setBeneficiary",
      "outputs": [],
      "stateMutability": "nonpayable",
      "type": "function"
    },
    {
      "inputs": [],
      "name": "myDonationsCount",
      "outputs": [
        {
          "internalType": "uint256",
          "name": "",
          "type": "uint256"
        }
      ],
      "stateMutability": "view",
      "type": "function"
    },
    {
      "inputs": [],
      "name": "donate",
      "outputs": [],
      "stateMutability": "payable",
      "type": "function"
    },
    {
      "inputs": [],
      "name": "myDonations",
      "outputs": [
        {
          "internalType": "uint256[]",
          "name": "values",
          "type": "uint256[]"
        },
        {
          "internalType": "uint256[]",
          "name": "dates",
          "type": "uint256[]"
        }
      ],
      "stateMutability": "view",
      "type": "function"
    },
    {
      "inputs": [],
      "name": "withdraw",
      "outputs": [],
      "stateMutability": "nonpayable",
      "type": "function"
    }
  ],
  "bytecode": "0x60806040523480156200001157600080fd5b506040516200196c3803806200196c8339818101604052810190620000379190620004dc565b620000576200004b6200011960201b60201c565b6200012160201b60201c565b85600190805190602001906200006f929190620001e5565b50846002908051906020019062000088929190620001e5565b508360039080519060200190620000a1929190620001e5565b508260049080519060200190620000ba929190620001e5565b5081600560006101000a81548173ffffffffffffffffffffffffffffffffffffffff021916908373ffffffffffffffffffffffffffffffffffffffff1602179055506200010d816200012160201b60201c565b50505050505062000659565b600033905090565b60008060009054906101000a900473ffffffffffffffffffffffffffffffffffffffff169050816000806101000a81548173ffffffffffffffffffffffffffffffffffffffff021916908373ffffffffffffffffffffffffffffffffffffffff1602179055508173ffffffffffffffffffffffffffffffffffffffff168173ffffffffffffffffffffffffffffffffffffffff167f8be0079c531659141344cd1fd0a4f28419497f9722a3daafe3b4186f6b6457e060405160405180910390a35050565b828054620001f39062000623565b90600052602060002090601f01602090048101928262000217576000855562000263565b82601f106200023257805160ff191683800117855562000263565b8280016001018555821562000263579182015b828111156200026257825182559160200191906001019062000245565b5b50905062000272919062000276565b5090565b5b808211156200029157600081600090555060010162000277565b5090565b6000604051905090565b600080fd5b600080fd5b600080fd5b600080fd5b6000601f19601f8301169050919050565b7f4e487b7100000000000000000000000000000000000000000000000000000000600052604160045260246000fd5b620002fe82620002b3565b810181811067ffffffffffffffff8211171562000320576200031f620002c4565b5b80604052505050565b60006200033562000295565b9050620003438282620002f3565b919050565b600067ffffffffffffffff821115620003665762000365620002c4565b5b6200037182620002b3565b9050602081019050919050565b60005b838110156200039e57808201518184015260208101905062000381565b83811115620003ae576000848401525b50505050565b6000620003cb620003c58462000348565b62000329565b905082815260208101848484011115620003ea57620003e9620002ae565b5b620003f78482856200037e565b509392505050565b600082601f830112620004175762000416620002a9565b5b815162000429848260208601620003b4565b91505092915050565b600073ffffffffffffffffffffffffffffffffffffffff82169050919050565b60006200045f8262000432565b9050919050565b620004718162000452565b81146200047d57600080fd5b50565b600081519050620004918162000466565b92915050565b6000620004a48262000432565b9050919050565b620004b68162000497565b8114620004c257600080fd5b50565b600081519050620004d681620004ab565b92915050565b60008060008060008060c08789031215620004fc57620004fb6200029f565b5b600087015167ffffffffffffffff8111156200051d576200051c620002a4565b5b6200052b89828a01620003ff565b965050602087015167ffffffffffffffff8111156200054f576200054e620002a4565b5b6200055d89828a01620003ff565b955050604087015167ffffffffffffffff811115620005815762000580620002a4565b5b6200058f89828a01620003ff565b945050606087015167ffffffffffffffff811115620005b357620005b2620002a4565b5b620005c189828a01620003ff565b9350506080620005d489828a0162000480565b92505060a0620005e789828a01620004c5565b9150509295509295509295565b7f4e487b7100000000000000000000000000000000000000000000000000000000600052602260045260246000fd5b600060028204905060018216806200063c57607f821691505b60208210811415620006535762000652620005f4565b5b50919050565b61130380620006696000396000f3fe6080604052600436106100ec5760003560e01c8063715018a61161008a578063b90497e011610059578063b90497e0146102d2578063de2ed893146102fd578063ed88c68e14610328578063f2fde38b14610332576100ed565b8063715018a61461023a5780637284e416146102515780638da5cb5b1461027c578063a780b94e146102a7576100ed565b80631c31f710116100c65780631c31f710146101a45780631f522595146101cd57806338af3eed146101f85780633ccfd60b14610223576100ed565b80630180b97c1461012257806306fdde031461014d5780631a57f7b414610178576100ed565b5b6101023460065461035b90919063ffffffff16565b6006819055506007600081548092919061011b90610d48565b9190505550005b34801561012e57600080fd5b50610137610371565b6040516101449190610da0565b60405180910390f35b34801561015957600080fd5b506101626103bb565b60405161016f9190610e54565b60405180910390f35b34801561018457600080fd5b5061018d610449565b60405161019b929190610f34565b60405180910390f35b3480156101b057600080fd5b506101cb60048036038101906101c69190610fce565b6105be565b005b3480156101d957600080fd5b506101e261067e565b6040516101ef9190610da0565b60405180910390f35b34801561020457600080fd5b5061020d610684565b60405161021a919061100a565b60405180910390f35b34801561022f57600080fd5b506102386106aa565b005b34801561024657600080fd5b5061024f6107ce565b005b34801561025d57600080fd5b50610266610856565b6040516102739190610e54565b60405180910390f35b34801561028857600080fd5b506102916108e4565b60405161029e9190611046565b60405180910390f35b3480156102b357600080fd5b506102bc61090d565b6040516102c99190610e54565b60405180910390f35b3480156102de57600080fd5b506102e761099b565b6040516102f49190610e54565b60405180910390f35b34801561030957600080fd5b50610312610a29565b60405161031f9190610da0565b60405180910390f35b610330610a2f565b005b34801561033e57600080fd5b506103596004803603810190610354919061108d565b610b4b565b005b6000818361036991906110ba565b905092915050565b6000600860003373ffffffffffffffffffffffffffffffffffffffff1673ffffffffffffffffffffffffffffffffffffffff16815260200190815260200160002080549050905090565b600180546103c89061113f565b80601f01602080910402602001604051908101604052809291908181526020018280546103f49061113f565b80156104415780601f1061041657610100808354040283529160200191610441565b820191906000526020600020905b81548152906001019060200180831161042457829003601f168201915b505050505081565b6060806000610456610371565b90508067ffffffffffffffff81111561047257610471611171565b5b6040519080825280602002602001820160405280156104a05781602001602082028036833780820191505090505b5092508067ffffffffffffffff8111156104bd576104bc611171565b5b6040519080825280602002602001820160405280156104eb5781602001602082028036833780820191505090505b50915060005b818110156105b8576000600860003373ffffffffffffffffffffffffffffffffffffffff1673ffffffffffffffffffffffffffffffffffffffff168152602001908152602001600020828154811061054c5761054b6111a0565b5b906000526020600020906002020190508060000154858381518110610574576105736111a0565b5b6020026020010181815250508060010154848381518110610598576105976111a0565b5b6020026020010181815250505080806105b090610d48565b9150506104f1565b50509091565b6105c6610c43565b73ffffffffffffffffffffffffffffffffffffffff166105e46108e4565b73ffffffffffffffffffffffffffffffffffffffff161461063a576040517f08c379a00000000000000000000000000000000000000000000000000000000081526004016106319061121b565b60405180910390fd5b80600560006101000a81548173ffffffffffffffffffffffffffffffffffffffff021916908373ffffffffffffffffffffffffffffffffffffffff16021790555050565b60075481565b600560009054906101000a900473ffffffffffffffffffffffffffffffffffffffff1681565b6106b2610c43565b73ffffffffffffffffffffffffffffffffffffffff166106d06108e4565b73ffffffffffffffffffffffffffffffffffffffff1614610726576040517f08c379a000000000000000000000000000000000000000000000000000000000815260040161071d9061121b565b60405180910390fd5b6000479050600560009054906101000a900473ffffffffffffffffffffffffffffffffffffffff1673ffffffffffffffffffffffffffffffffffffffff166108fc829081150290604051600060405180830381858888f19350505050158015610793573d6000803e3d6000fd5b507f5b6b431d4476a211bb7d41c20d1aab9ae2321deee0d20be3d9fc9b1093fa6e3d816040516107c39190610da0565b60405180910390a150565b6107d6610c43565b73ffffffffffffffffffffffffffffffffffffffff166107f46108e4565b73ffffffffffffffffffffffffffffffffffffffff161461084a576040517f08c379a00000000000000000000000000000000000000000000000000000000081526004016108419061121b565b60405180910390fd5b6108546000610c4b565b565b600480546108639061113f565b80601f016020809104026020016040519081016040528092919081815260200182805461088f9061113f565b80156108dc5780601f106108b1576101008083540402835291602001916108dc565b820191906000526020600020905b8154815290600101906020018083116108bf57829003601f168201915b505050505081565b60008060009054906101000a900473ffffffffffffffffffffffffffffffffffffffff16905090565b6002805461091a9061113f565b80601f01602080910402602001604051908101604052809291908181526020018280546109469061113f565b80156109935780601f1061096857610100808354040283529160200191610993565b820191906000526020600020905b81548152906001019060200180831161097657829003601f168201915b505050505081565b600380546109a89061113f565b80601f01602080910402602001604051908101604052809291908181526020018280546109d49061113f565b8015610a215780601f106109f657610100808354040283529160200191610a21565b820191906000526020600020905b815481529060010190602001808311610a0457829003601f168201915b505050505081565b60065481565b60006040518060400160405280348152602001428152509050600860003373ffffffffffffffffffffffffffffffffffffffff1673ffffffffffffffffffffffffffffffffffffffff16815260200190815260200160002081908060018154018082558091505060019003906000526020600020906002020160009091909190915060008201518160000155602082015181600101555050610adc3460065461035b90919063ffffffff16565b60068190555060076000815480929190610af590610d48565b91905055503373ffffffffffffffffffffffffffffffffffffffff167f264f630d9efa0d07053a31163641d9fcc0adafc9d9e76f1c37c2ce3a558d2c5234604051610b409190610da0565b60405180910390a250565b610b53610c43565b73ffffffffffffffffffffffffffffffffffffffff16610b716108e4565b73ffffffffffffffffffffffffffffffffffffffff1614610bc7576040517f08c379a0000000000000000000000000000000000000000000000000000000008152600401610bbe9061121b565b60405180910390fd5b600073ffffffffffffffffffffffffffffffffffffffff168173ffffffffffffffffffffffffffffffffffffffff161415610c37576040517f08c379a0000000000000000000000000000000000000000000000000000000008152600401610c2e906112ad565b60405180910390fd5b610c4081610c4b565b50565b600033905090565b60008060009054906101000a900473ffffffffffffffffffffffffffffffffffffffff169050816000806101000a81548173ffffffffffffffffffffffffffffffffffffffff021916908373ffffffffffffffffffffffffffffffffffffffff1602179055508173ffffffffffffffffffffffffffffffffffffffff168173ffffffffffffffffffffffffffffffffffffffff167f8be0079c531659141344cd1fd0a4f28419497f9722a3daafe3b4186f6b6457e060405160405180910390a35050565b7f4e487b7100000000000000000000000000000000000000000000000000000000600052601160045260246000fd5b6000819050919050565b6000610d5382610d3e565b91507fffffffffffffffffffffffffffffffffffffffffffffffffffffffffffffffff821415610d8657610d85610d0f565b5b600182019050919050565b610d9a81610d3e565b82525050565b6000602082019050610db56000830184610d91565b92915050565b600081519050919050565b600082825260208201905092915050565b60005b83811015610df5578082015181840152602081019050610dda565b83811115610e04576000848401525b50505050565b6000601f19601f8301169050919050565b6000610e2682610dbb565b610e308185610dc6565b9350610e40818560208601610dd7565b610e4981610e0a565b840191505092915050565b60006020820190508181036000830152610e6e8184610e1b565b905092915050565b600081519050919050565b600082825260208201905092915050565b6000819050602082019050919050565b610eab81610d3e565b82525050565b6000610ebd8383610ea2565b60208301905092915050565b6000602082019050919050565b6000610ee182610e76565b610eeb8185610e81565b9350610ef683610e92565b8060005b83811015610f27578151610f0e8882610eb1565b9750610f1983610ec9565b925050600181019050610efa565b5085935050505092915050565b60006040820190508181036000830152610f4e8185610ed6565b90508181036020830152610f628184610ed6565b90509392505050565b600080fd5b600073ffffffffffffffffffffffffffffffffffffffff82169050919050565b6000610f9b82610f70565b9050919050565b610fab81610f90565b8114610fb657600080fd5b50565b600081359050610fc881610fa2565b92915050565b600060208284031215610fe457610fe3610f6b565b5b6000610ff284828501610fb9565b91505092915050565b61100481610f90565b82525050565b600060208201905061101f6000830184610ffb565b92915050565b600061103082610f70565b9050919050565b61104081611025565b82525050565b600060208201905061105b6000830184611037565b92915050565b61106a81611025565b811461107557600080fd5b50565b60008135905061108781611061565b92915050565b6000602082840312156110a3576110a2610f6b565b5b60006110b184828501611078565b91505092915050565b60006110c582610d3e565b91506110d083610d3e565b9250827fffffffffffffffffffffffffffffffffffffffffffffffffffffffffffffffff0382111561110557611104610d0f565b5b828201905092915050565b7f4e487b7100000000000000000000000000000000000000000000000000000000600052602260045260246000fd5b6000600282049050600182168061115757607f821691505b6020821081141561116b5761116a611110565b5b50919050565b7f4e487b7100000000000000000000000000000000000000000000000000000000600052604160045260246000fd5b7f4e487b7100000000000000000000000000000000000000000000000000000000600052603260045260246000fd5b7f4f776e61626c653a2063616c6c6572206973206e6f7420746865206f776e6572600082015250565b6000611205602083610dc6565b9150611210826111cf565b602082019050919050565b60006020820190508181036000830152611234816111f8565b9050919050565b7f4f776e61626c653a206e6577206f776e657220697320746865207a65726f206160008201527f6464726573730000000000000000000000000000000000000000000000000000602082015250565b6000611297602683610dc6565b91506112a28261123b565b604082019050919050565b600060208201905081810360008301526112c68161128a565b905091905056fea2646970667358221220a1156fdd9d2f83d8c12e79e8dc37d44fd8294645b34d44ed4180b1314bd4112464736f6c634300080b0033",
  "immutableReferences": {},
  "source": "// SPDX-License-Identifier: MIT\npragma solidity >=0.4.22 <0.9.0;\n\nimport \"openzeppelin-solidity/contracts/access/Ownable.sol\";\nimport \"openzeppelin-solidity/contracts/utils/math/SafeMath.sol\";\n\ncontract Fundraiser is Ownable {\n  using SafeMath for uint256;\n\n  struct Donation {\n    uint256 value;\n    uint256 date;\n  }\n\n  string public name;\n  string public siteURL;\n  string public imageURL;\n  string public description;\n  address payable public beneficiary;\n  uint256 public totalDonations;\n  uint256 public donationsCount; /* Count all donations */\n\n  event DonationReceived(address indexed donor, uint256 value);\n  event Withdraw(uint256 amount);\n\n  mapping(address => Donation[]) private _donations;\n\n  constructor(\n    string memory _name,\n    string memory _siteURL,\n    string memory _imageURL,\n    string memory _description,\n    address payable _beneficiary,\n    address _owner\n  ) public { \n    name = _name;\n    siteURL = _siteURL;\n    imageURL = _imageURL;\n    description = _description;\n    beneficiary = _beneficiary;\n    _transferOwnership(_owner);\n  }\n\n  function setBeneficiary(address payable _beneficiary) public onlyOwner {\n    beneficiary = _beneficiary;\n  }\n\n  /* Retrive total donations count from sender */\n  function myDonationsCount() public view returns(uint256) { \n    return _donations[msg.sender].length;\n  }\n\n  function donate() public payable { \n    Donation memory donation = Donation({\n        value: msg.value,\n        date: block.timestamp\n    });\n    _donations[msg.sender].push(donation);\n    totalDonations = totalDonations.add(msg.value);\n    donationsCount++;\n\n    emit DonationReceived(msg.sender, msg.value);\n  }\n\n  /* Retrive sender's donations */\n  function myDonations() public view returns(uint256[] memory values, uint256[] memory dates) {\n    uint256 count = myDonationsCount(); \n    values = new uint256[](count); \n    dates = new uint256[](count);\n\n    for (uint256 i = 0; i < count; i++) {\n      Donation storage donation = _donations[msg.sender][i];\n      values[i] = donation.value;\n      dates[i] = donation.date;\n    }\n    \n    return (values, dates);\n  }\n\n  function withdraw() public onlyOwner { \n    uint256 balance = address(this).balance;\n    beneficiary.transfer(balance);\n    emit Withdraw(balance);\n  }\n\n  fallback() external payable {\n    totalDonations = totalDonations.add(msg.value); \n    donationsCount++;\n  }\n}",
  "sourcePath": "/Users/m/my_stuffs/dapp-three/contracts/Fundraiser.sol",
  "compiler": {
    "name": "solc",
    "version": "0.8.11+commit.d7f03943.Emscripten.clang"
  },
  "schemaVersion": "3.4.4",
  "updatedAt": "2022-03-04T01:23:19.345Z",
  "devdoc": {
    "kind": "dev",
    "methods": {
      "owner()": {
        "details": "Returns the address of the current owner."
      },
      "renounceOwnership()": {
        "details": "Leaves the contract without owner. It will not be possible to call `onlyOwner` functions anymore. Can only be called by the current owner. NOTE: Renouncing ownership will leave the contract without an owner, thereby removing any functionality that is only available to the owner."
      },
      "transferOwnership(address)": {
        "details": "Transfers ownership of the contract to a new account (`newOwner`). Can only be called by the current owner."
      }
    },
    "version": 1
  },
  "userdoc": {
    "kind": "user",
    "methods": {},
    "version": 1
  }
}