{
  "contractName": "Fundraiser",
  "abi": [
    {
      "inputs": [
        {
          "internalType": "string",
          "name": "_name",
          "type": "string"
        },
        {
          "internalType": "string",
          "name": "_siteURL",
          "type": "string"
        },
        {
          "internalType": "string",
          "name": "_imageURL",
          "type": "string"
        },
        {
          "internalType": "string",
          "name": "_description",
          "type": "string"
        },
        {
          "internalType": "address payable",
          "name": "_beneficiary",
          "type": "address"
        }
      ],
      "stateMutability": "nonpayable",
      "type": "constructor"
    },
    {
      "anonymous": false,
      "inputs": [
        {
          "indexed": true,
          "internalType": "address",
          "name": "donor",
          "type": "address"
        },
        {
          "indexed": false,
          "internalType": "uint256",
          "name": "value",
          "type": "uint256"
        }
      ],
      "name": "DonationReceived",
      "type": "event"
    },
    {
      "anonymous": false,
      "inputs": [
        {
          "indexed": true,
          "internalType": "address",
          "name": "previousOwner",
          "type": "address"
        },
        {
          "indexed": true,
          "internalType": "address",
          "name": "newOwner",
          "type": "address"
        }
      ],
      "name": "OwnershipTransferred",
      "type": "event"
    },
    {
      "anonymous": false,
      "inputs": [
        {
          "indexed": false,
          "internalType": "uint256",
          "name": "amount",
          "type": "uint256"
        }
      ],
      "name": "Withdraw",
      "type": "event"
    },
    {
      "stateMutability": "payable",
      "type": "fallback"
    },
    {
      "inputs": [],
      "name": "beneficiary",
      "outputs": [
        {
          "internalType": "address payable",
          "name": "",
          "type": "address"
        }
      ],
      "stateMutability": "view",
      "type": "function"
    },
    {
      "inputs": [],
      "name": "description",
      "outputs": [
        {
          "internalType": "string",
          "name": "",
          "type": "string"
        }
      ],
      "stateMutability": "view",
      "type": "function"
    },
    {
      "inputs": [],
      "name": "donationsCount",
      "outputs": [
        {
          "internalType": "uint256",
          "name": "",
          "type": "uint256"
        }
      ],
      "stateMutability": "view",
      "type": "function"
    },
    {
      "inputs": [],
      "name": "imageURL",
      "outputs": [
        {
          "internalType": "string",
          "name": "",
          "type": "string"
        }
      ],
      "stateMutability": "view",
      "type": "function"
    },
    {
      "inputs": [],
      "name": "name",
      "outputs": [
        {
          "internalType": "string",
          "name": "",
          "type": "string"
        }
      ],
      "stateMutability": "view",
      "type": "function"
    },
    {
      "inputs": [],
      "name": "owner",
      "outputs": [
        {
          "internalType": "address",
          "name": "",
          "type": "address"
        }
      ],
      "stateMutability": "view",
      "type": "function"
    },
    {
      "inputs": [],
      "name": "renounceOwnership",
      "outputs": [],
      "stateMutability": "nonpayable",
      "type": "function"
    },
    {
      "inputs": [],
      "name": "siteURL",
      "outputs": [
        {
          "internalType": "string",
          "name": "",
          "type": "string"
        }
      ],
      "stateMutability": "view",
      "type": "function"
    },
    {
      "inputs": [],
      "name": "totalDonations",
      "outputs": [
        {
          "internalType": "uint256",
          "name": "",
          "type": "uint256"
        }
      ],
      "stateMutability": "view",
      "type": "function"
    },
    {
      "inputs": [
        {
          "internalType": "address",
          "name": "newOwner",
          "type": "address"
        }
      ],
      "name": "transferOwnership",
      "outputs": [],
      "stateMutability": "nonpayable",
      "type": "function"
    },
    {
      "inputs": [],
      "name": "myDonationsCount",
      "outputs": [
        {
          "internalType": "uint256",
          "name": "",
          "type": "uint256"
        }
      ],
      "stateMutability": "view",
      "type": "function"
    },
    {
      "inputs": [],
      "name": "donate",
      "outputs": [],
      "stateMutability": "payable",
      "type": "function"
    },
    {
      "inputs": [],
      "name": "myDonations",
      "outputs": [
        {
          "internalType": "uint256[]",
          "name": "values",
          "type": "uint256[]"
        },
        {
          "internalType": "uint256[]",
          "name": "dates",
          "type": "uint256[]"
        }
      ],
      "stateMutability": "view",
      "type": "function"
    },
    {
      "inputs": [],
      "name": "withdraw",
      "outputs": [],
      "stateMutability": "nonpayable",
      "type": "function"
    }
  ],
  "bytecode": "0x60806040523480156200001157600080fd5b50604051620017c5380380620017c5833981810160405281019062000037919062000496565b620000576200004b6200011860201b60201c565b6200012060201b60201c565b84600190805190602001906200006f929190620001e4565b50836002908051906020019062000088929190620001e4565b508260039080519060200190620000a1929190620001e4565b508160049080519060200190620000ba929190620001e4565b5080600560006101000a81548173ffffffffffffffffffffffffffffffffffffffff021916908373ffffffffffffffffffffffffffffffffffffffff1602179055506200010d816200012060201b60201c565b5050505050620005ff565b600033905090565b60008060009054906101000a900473ffffffffffffffffffffffffffffffffffffffff169050816000806101000a81548173ffffffffffffffffffffffffffffffffffffffff021916908373ffffffffffffffffffffffffffffffffffffffff1602179055508173ffffffffffffffffffffffffffffffffffffffff168173ffffffffffffffffffffffffffffffffffffffff167f8be0079c531659141344cd1fd0a4f28419497f9722a3daafe3b4186f6b6457e060405160405180910390a35050565b828054620001f290620005c9565b90600052602060002090601f01602090048101928262000216576000855562000262565b82601f106200023157805160ff191683800117855562000262565b8280016001018555821562000262579182015b828111156200026157825182559160200191906001019062000244565b5b50905062000271919062000275565b5090565b5b808211156200029057600081600090555060010162000276565b5090565b6000604051905090565b600080fd5b600080fd5b600080fd5b600080fd5b6000601f19601f8301169050919050565b7f4e487b7100000000000000000000000000000000000000000000000000000000600052604160045260246000fd5b620002fd82620002b2565b810181811067ffffffffffffffff821117156200031f576200031e620002c3565b5b80604052505050565b60006200033462000294565b9050620003428282620002f2565b919050565b600067ffffffffffffffff821115620003655762000364620002c3565b5b6200037082620002b2565b9050602081019050919050565b60005b838110156200039d57808201518184015260208101905062000380565b83811115620003ad576000848401525b50505050565b6000620003ca620003c48462000347565b62000328565b905082815260208101848484011115620003e957620003e8620002ad565b5b620003f68482856200037d565b509392505050565b600082601f830112620004165762000415620002a8565b5b815162000428848260208601620003b3565b91505092915050565b600073ffffffffffffffffffffffffffffffffffffffff82169050919050565b60006200045e8262000431565b9050919050565b620004708162000451565b81146200047c57600080fd5b50565b600081519050620004908162000465565b92915050565b600080600080600060a08688031215620004b557620004b46200029e565b5b600086015167ffffffffffffffff811115620004d657620004d5620002a3565b5b620004e488828901620003fe565b955050602086015167ffffffffffffffff811115620005085762000507620002a3565b5b6200051688828901620003fe565b945050604086015167ffffffffffffffff8111156200053a5762000539620002a3565b5b6200054888828901620003fe565b935050606086015167ffffffffffffffff8111156200056c576200056b620002a3565b5b6200057a88828901620003fe565b92505060806200058d888289016200047f565b9150509295509295909350565b7f4e487b7100000000000000000000000000000000000000000000000000000000600052602260045260246000fd5b60006002820490506001821680620005e257607f821691505b60208210811415620005f957620005f86200059a565b5b50919050565b6111b6806200060f6000396000f3fe6080604052600436106100e15760003560e01c80637284e4161161007f578063b90497e011610059578063b90497e01461029e578063de2ed893146102c9578063ed88c68e146102f4578063f2fde38b146102fe576100e2565b80637284e4161461021d5780638da5cb5b14610248578063a780b94e14610273576100e2565b80631f522595116100bb5780631f5225951461019957806338af3eed146101c45780633ccfd60b146101ef578063715018a614610206576100e2565b80630180b97c1461011757806306fdde03146101425780631a57f7b41461016d576100e2565b5b6100f73460065461032790919063ffffffff16565b6006819055506007600081548092919061011090610c54565b9190505550005b34801561012357600080fd5b5061012c61033d565b6040516101399190610cac565b60405180910390f35b34801561014e57600080fd5b50610157610387565b6040516101649190610d60565b60405180910390f35b34801561017957600080fd5b50610182610415565b604051610190929190610e40565b60405180910390f35b3480156101a557600080fd5b506101ae61058a565b6040516101bb9190610cac565b60405180910390f35b3480156101d057600080fd5b506101d9610590565b6040516101e69190610eb8565b60405180910390f35b3480156101fb57600080fd5b506102046105b6565b005b34801561021257600080fd5b5061021b6106da565b005b34801561022957600080fd5b50610232610762565b60405161023f9190610d60565b60405180910390f35b34801561025457600080fd5b5061025d6107f0565b60405161026a9190610ef4565b60405180910390f35b34801561027f57600080fd5b50610288610819565b6040516102959190610d60565b60405180910390f35b3480156102aa57600080fd5b506102b36108a7565b6040516102c09190610d60565b60405180910390f35b3480156102d557600080fd5b506102de610935565b6040516102eb9190610cac565b60405180910390f35b6102fc61093b565b005b34801561030a57600080fd5b5061032560048036038101906103209190610f40565b610a57565b005b600081836103359190610f6d565b905092915050565b6000600860003373ffffffffffffffffffffffffffffffffffffffff1673ffffffffffffffffffffffffffffffffffffffff16815260200190815260200160002080549050905090565b6001805461039490610ff2565b80601f01602080910402602001604051908101604052809291908181526020018280546103c090610ff2565b801561040d5780601f106103e25761010080835404028352916020019161040d565b820191906000526020600020905b8154815290600101906020018083116103f057829003601f168201915b505050505081565b606080600061042261033d565b90508067ffffffffffffffff81111561043e5761043d611024565b5b60405190808252806020026020018201604052801561046c5781602001602082028036833780820191505090505b5092508067ffffffffffffffff81111561048957610488611024565b5b6040519080825280602002602001820160405280156104b75781602001602082028036833780820191505090505b50915060005b81811015610584576000600860003373ffffffffffffffffffffffffffffffffffffffff1673ffffffffffffffffffffffffffffffffffffffff168152602001908152602001600020828154811061051857610517611053565b5b9060005260206000209060020201905080600001548583815181106105405761053f611053565b5b602002602001018181525050806001015484838151811061056457610563611053565b5b60200260200101818152505050808061057c90610c54565b9150506104bd565b50509091565b60075481565b600560009054906101000a900473ffffffffffffffffffffffffffffffffffffffff1681565b6105be610b4f565b73ffffffffffffffffffffffffffffffffffffffff166105dc6107f0565b73ffffffffffffffffffffffffffffffffffffffff1614610632576040517f08c379a0000000000000000000000000000000000000000000000000000000008152600401610629906110ce565b60405180910390fd5b6000479050600560009054906101000a900473ffffffffffffffffffffffffffffffffffffffff1673ffffffffffffffffffffffffffffffffffffffff166108fc829081150290604051600060405180830381858888f1935050505015801561069f573d6000803e3d6000fd5b507f5b6b431d4476a211bb7d41c20d1aab9ae2321deee0d20be3d9fc9b1093fa6e3d816040516106cf9190610cac565b60405180910390a150565b6106e2610b4f565b73ffffffffffffffffffffffffffffffffffffffff166107006107f0565b73ffffffffffffffffffffffffffffffffffffffff1614610756576040517f08c379a000000000000000000000000000000000000000000000000000000000815260040161074d906110ce565b60405180910390fd5b6107606000610b57565b565b6004805461076f90610ff2565b80601f016020809104026020016040519081016040528092919081815260200182805461079b90610ff2565b80156107e85780601f106107bd576101008083540402835291602001916107e8565b820191906000526020600020905b8154815290600101906020018083116107cb57829003601f168201915b505050505081565b60008060009054906101000a900473ffffffffffffffffffffffffffffffffffffffff16905090565b6002805461082690610ff2565b80601f016020809104026020016040519081016040528092919081815260200182805461085290610ff2565b801561089f5780601f106108745761010080835404028352916020019161089f565b820191906000526020600020905b81548152906001019060200180831161088257829003601f168201915b505050505081565b600380546108b490610ff2565b80601f01602080910402602001604051908101604052809291908181526020018280546108e090610ff2565b801561092d5780601f106109025761010080835404028352916020019161092d565b820191906000526020600020905b81548152906001019060200180831161091057829003601f168201915b505050505081565b60065481565b60006040518060400160405280348152602001428152509050600860003373ffffffffffffffffffffffffffffffffffffffff1673ffffffffffffffffffffffffffffffffffffffff168152602001908152602001600020819080600181540180825580915050600190039060005260206000209060020201600090919091909150600082015181600001556020820151816001015550506109e83460065461032790919063ffffffff16565b60068190555060076000815480929190610a0190610c54565b91905055503373ffffffffffffffffffffffffffffffffffffffff167f264f630d9efa0d07053a31163641d9fcc0adafc9d9e76f1c37c2ce3a558d2c5234604051610a4c9190610cac565b60405180910390a250565b610a5f610b4f565b73ffffffffffffffffffffffffffffffffffffffff16610a7d6107f0565b73ffffffffffffffffffffffffffffffffffffffff1614610ad3576040517f08c379a0000000000000000000000000000000000000000000000000000000008152600401610aca906110ce565b60405180910390fd5b600073ffffffffffffffffffffffffffffffffffffffff168173ffffffffffffffffffffffffffffffffffffffff161415610b43576040517f08c379a0000000000000000000000000000000000000000000000000000000008152600401610b3a90611160565b60405180910390fd5b610b4c81610b57565b50565b600033905090565b60008060009054906101000a900473ffffffffffffffffffffffffffffffffffffffff169050816000806101000a81548173ffffffffffffffffffffffffffffffffffffffff021916908373ffffffffffffffffffffffffffffffffffffffff1602179055508173ffffffffffffffffffffffffffffffffffffffff168173ffffffffffffffffffffffffffffffffffffffff167f8be0079c531659141344cd1fd0a4f28419497f9722a3daafe3b4186f6b6457e060405160405180910390a35050565b7f4e487b7100000000000000000000000000000000000000000000000000000000600052601160045260246000fd5b6000819050919050565b6000610c5f82610c4a565b91507fffffffffffffffffffffffffffffffffffffffffffffffffffffffffffffffff821415610c9257610c91610c1b565b5b600182019050919050565b610ca681610c4a565b82525050565b6000602082019050610cc16000830184610c9d565b92915050565b600081519050919050565b600082825260208201905092915050565b60005b83811015610d01578082015181840152602081019050610ce6565b83811115610d10576000848401525b50505050565b6000601f19601f8301169050919050565b6000610d3282610cc7565b610d3c8185610cd2565b9350610d4c818560208601610ce3565b610d5581610d16565b840191505092915050565b60006020820190508181036000830152610d7a8184610d27565b905092915050565b600081519050919050565b600082825260208201905092915050565b6000819050602082019050919050565b610db781610c4a565b82525050565b6000610dc98383610dae565b60208301905092915050565b6000602082019050919050565b6000610ded82610d82565b610df78185610d8d565b9350610e0283610d9e565b8060005b83811015610e33578151610e1a8882610dbd565b9750610e2583610dd5565b925050600181019050610e06565b5085935050505092915050565b60006040820190508181036000830152610e5a8185610de2565b90508181036020830152610e6e8184610de2565b90509392505050565b600073ffffffffffffffffffffffffffffffffffffffff82169050919050565b6000610ea282610e77565b9050919050565b610eb281610e97565b82525050565b6000602082019050610ecd6000830184610ea9565b92915050565b6000610ede82610e77565b9050919050565b610eee81610ed3565b82525050565b6000602082019050610f096000830184610ee5565b92915050565b600080fd5b610f1d81610ed3565b8114610f2857600080fd5b50565b600081359050610f3a81610f14565b92915050565b600060208284031215610f5657610f55610f0f565b5b6000610f6484828501610f2b565b91505092915050565b6000610f7882610c4a565b9150610f8383610c4a565b9250827fffffffffffffffffffffffffffffffffffffffffffffffffffffffffffffffff03821115610fb857610fb7610c1b565b5b828201905092915050565b7f4e487b7100000000000000000000000000000000000000000000000000000000600052602260045260246000fd5b6000600282049050600182168061100a57607f821691505b6020821081141561101e5761101d610fc3565b5b50919050565b7f4e487b7100000000000000000000000000000000000000000000000000000000600052604160045260246000fd5b7f4e487b7100000000000000000000000000000000000000000000000000000000600052603260045260246000fd5b7f4f776e61626c653a2063616c6c6572206973206e6f7420746865206f776e6572600082015250565b60006110b8602083610cd2565b91506110c382611082565b602082019050919050565b600060208201905081810360008301526110e7816110ab565b9050919050565b7f4f776e61626c653a206e6577206f776e657220697320746865207a65726f206160008201527f6464726573730000000000000000000000000000000000000000000000000000602082015250565b600061114a602683610cd2565b9150611155826110ee565b604082019050919050565b600060208201905081810360008301526111798161113d565b905091905056fea264697066735822122002e59ffb59493ea00c4724fd7dcda15a5f4cb1b7a8e5f149f56edeafb1deeb7864736f6c634300080b0033",
  "immutableReferences": {},
  "source": "// SPDX-License-Identifier: MIT\npragma solidity >=0.4.22 <0.9.0;\n\nimport \"openzeppelin-solidity/contracts/access/Ownable.sol\";\nimport \"openzeppelin-solidity/contracts/utils/math/SafeMath.sol\";\n\ncontract Fundraiser is Ownable {\n  using SafeMath for uint256;\n\n  struct Donation {\n    uint256 value;\n    uint256 date;\n  }\n\n  string public name;\n  string public siteURL;\n  string public imageURL;\n  string public description;\n  address payable public beneficiary;\n  uint256 public totalDonations;\n  uint256 public donationsCount; /* Count all donations */\n\n  event DonationReceived(address indexed donor, uint256 value);\n  event Withdraw(uint256 amount);\n\n  mapping(address => Donation[]) private _donations;\n\n  constructor(\n    string memory _name,\n    string memory _siteURL,\n    string memory _imageURL,\n    string memory _description,\n    address payable _beneficiary\n  ) public { \n    name = _name;\n    siteURL = _siteURL;\n    imageURL = _imageURL;\n    description = _description;\n    beneficiary = _beneficiary;\n    _transferOwnership(_beneficiary);\n  }\n\n  /* Retrive total donations count from sender */\n  function myDonationsCount() public view returns(uint256) { \n    return _donations[msg.sender].length;\n  }\n\n  function donate() public payable { \n    Donation memory donation = Donation({\n        value: msg.value,\n        date: block.timestamp\n    });\n    _donations[msg.sender].push(donation);\n    totalDonations = totalDonations.add(msg.value);\n    donationsCount++;\n\n    emit DonationReceived(msg.sender, msg.value);\n  }\n\n  /* Retrive sender's donations */\n  function myDonations() public view returns(uint256[] memory values, uint256[] memory dates) {\n    uint256 count = myDonationsCount(); \n    values = new uint256[](count); \n    dates = new uint256[](count);\n\n    for (uint256 i = 0; i < count; i++) {\n      Donation storage donation = _donations[msg.sender][i];\n      values[i] = donation.value;\n      dates[i] = donation.date;\n    }\n    \n    return (values, dates);\n  }\n\n  function withdraw() public onlyOwner {\n    uint256 balance = address(this).balance;\n    beneficiary.transfer(balance);\n    emit Withdraw(balance);\n  }\n\n  fallback() external payable {\n    totalDonations = totalDonations.add(msg.value); \n    donationsCount++;\n  }\n}",
  "sourcePath": "/Users/m/my_stuffs/dapp-three/contracts/Fundraiser.sol",
  "compiler": {
    "name": "solc",
    "version": "0.8.11+commit.d7f03943.Emscripten.clang"
  },
  "schemaVersion": "3.4.4",
  "updatedAt": "2022-03-04T05:14:12.641Z",
  "devdoc": {
    "kind": "dev",
    "methods": {
      "owner()": {
        "details": "Returns the address of the current owner."
      },
      "renounceOwnership()": {
        "details": "Leaves the contract without owner. It will not be possible to call `onlyOwner` functions anymore. Can only be called by the current owner. NOTE: Renouncing ownership will leave the contract without an owner, thereby removing any functionality that is only available to the owner."
      },
      "transferOwnership(address)": {
        "details": "Transfers ownership of the contract to a new account (`newOwner`). Can only be called by the current owner."
      }
    },
    "version": 1
  },
  "userdoc": {
    "kind": "user",
    "methods": {},
    "version": 1
  }
}